:10000000803200200D38000075D30000F937000061
:1000100000000000000000000000000000000000E0
:100020000000000000000000000000004538000053
:100030000000000000000000B53900002998000011
:10004000553A0000553A0000553A0000553A000074
:10005000553A0000553A0000553A0000553A000064
:10006000553A0000553A0000553A0000553A000054
:10007000553A0000553A0000553A0000553A000044
:10008000553A0000553A0000553A0000553A000034
:10009000553A0000553A0000553A0000553A000024
:1000A000553A0000553A0000553A0000553A000014
:1000B00002B4714649084900095649008E4402BC01
:1000C0007047C04602B4714649084900095C4900BE
:1000D0008E4402BC7047C04603B4714649084000D4
:1000E0004900095A49008E4403BC7047002934D0A6
:1000F0000123002210B488422CD301242407A142FA
:1001000004D2814202D209011B01F8E7E400A142B6
:1001100004D2814202D249005B00F8E7884201D351
:10012000401A1A434C08A04202D3001B5C08224329
:100130008C08A04202D3001B9C082243CC08A0429A
:1001400002D3001BDC082243002803D01B0901D086
:100150000909E3E7100010BC704701B5002000F06A
:100160005FF802BD0029F8D003B5FFF7C1FF0EBC50
:100170004243891A1847C046002941D010B40400F0
:100180004C40A44601230022002900D54942002802
:1001900000D5404288422CD301242407A14204D236
:1001A000814202D209011B01F8E7E400A14204D216
:1001B000814202D249005B00F8E7884201D3401A2D
:1001C0001A434C08A04202D3001B5C0822438C084F
:1001D000A04202D3001B9C082243CC08A04202D3B9
:1001E000001BDC082243002803D01B0901D00909A9
:1001F000E3E710006446002C00D5404210BC704775
:1002000001B5002000F00CF802BDC0460029F7D06F
:1002100003B5FFF7B3FF0EBC4243891A1847C04627
:100220007047C046D0400B00D1409C46203AD34096
:10023000184352426346934018437047D0400B0026
:100240001141203A03D49C4613411843634652425D
:10025000934018437047C0469140030090409C462D
:10026000203A9340194352426346D34019437047A2
:10027000844608006146FFE71FB501F0FAFC00283C
:1002800001D40021C8421FBD10B501F08FFC4042CF
:10029000013010BD10B501F0ECFC002801DB00209E
:1002A00010BD012010BDC04610B501F0E2FC0028D1
:1002B00001DD002010BD012010BDC04610B501F0C9
:1002C0009AFC002801DC002010BD012010BDC046B2
:1002D00010B501F090FC002801DA002010BD0120CB
:1002E00010BDC0461C2101231B04984201D3000C01
:1002F00010391B0A984201D3000A08391B09984299
:1003000001D30009043902A2105C40187047C046AE
:1003100004030202010101010000000000000000CE
:1003200010B5002903D1FFF7DDFF203002E00800FF
:10033000FFF7D8FF10BDC046414208401C210123F1
:100340001B04984201D3000C10391B0A984201D3B8
:10035000000A08391B09984201D30009043902A296
:10036000105C401A7047C0461B1C1D1D1E1E1E1E21
:100370001F1F1F1F1F1F1F1F002B15D1002A13D166
:10038000002906DB01DC002806D00020C04341081C
:1003900002E080210906002007B4024801A14018AC
:1003A000029003BD7DFEFFFF03B4684601B50298CD
:1003B00001F0E4FB019B9E4602B00CBC7047C046B6
:1003C000002B11D1002A0FD1002900D1002802D022
:1003D0000021C943080007B4024802A14018029056
:1003E00003BDC0463DFEFFFF03B4684601B5029859
:1003F00001F04FFB019B9E4602B00CBC7047C0460B
:10040000D0B501F033F900220B4B06000F0000F0CD
:1004100013FC01F0ABF9040001F008F90022074BCE
:1004200000F00AFC02000B003000390000F02AFE48
:1004300001F09CF92100D0BD0000F03D0000F0412A
:10044000F0B5C30F85B0440245000391640A2D0E38
:1004500001932ED0FF2D39D08023E400DB047F3DB3
:100460001C4302950027039B5D025E00DB0F6D0AB3
:10047000360E039330D0FF2E3BD08023ED00DB04FB
:100480001D4333007F3B00210398019A42400298AC
:10049000D2B2C31AB800084301380E2842D8FFF779
:1004A00011FE6CA87EA89DA87E6C6C9D7E2E2E2EC3
:1004B000720001270294002CD5D02000FFF712FF14
:1004C000773F431F9C403B1A0293CBE703270295DB
:1004D000002CC8D1013FC6E72B000121002DD3D04D
:1004E0002800FFF7FFFE431F9D4076235B421B1A47
:1004F000C9E733000321002DC6D10139C4E7390013
:10050000019A022939D0032900D170E00025280082
:1005100001291ED16D026D0AC0052843D207104380
:1005200005B0F0BD64016D01AC4228D31A20012151
:10053000641B0126270049006400002F01DBA5424F
:1005400001D8641B314301380028F3D1601E844177
:100550000C4318007F30002824DD610704D00F21F0
:100560002140042900D00434210103D58033180030
:1005700023490C40E508FE28CCDD00250DE01B20BA
:100580000021013BD5E78023DB031C4201D01D4243
:1005900029D08025019AED032543FF20BAE72C00DE
:1005A000039AAEE701210025091A28001B29B1DCB6
:1005B0009E3325009C40CD40631E9C4125436B0724
:1005C00004D00F232B40042B00D0043580232800B7
:1005D000DB0418401D420FD1ED089BE70023802467
:1005E0000193E403D5E7039B2C000193D1E701922B
:1005F000CFE7002528008DE7002501208AE7C046C7
:10060000FFFFFFF7F0B5C30F85B047024400039129
:100610007F0A240E02930AD0FF2C71D080227F3CE7
:1006200026000023FF00D204174301930CE00123AE
:100630003E1E019308D03800FFF754FE7626431F74
:100640009F407642361A0194039B5C025D00DB0FEB
:10065000640A2D0E03935AD0FF2D64D08023280006
:10066000E400DB041C437F380023019986198800CD
:10067000721C18430A2800DD7EE00299039D694040
:100680000291022855DC0138012864D9B9B20D0065
:100690003B0C200CA4B2654341435C43434309191E
:1006A0001F002B0C5B189C4202D9802149027F1845
:1006B0001904ADB24D19AC01611E8C411B0CAD0E7D
:1006C000DB192C439B011C431B0167D501236108E7
:1006D0001C400C4310007F30002861DD630704D00C
:1006E0000F232340042B00D00434230103D5803290
:1006F00010003F4B1C40E108FE2834DD00214BE098
:10070000032326000193002F9ED1013B8DE720009B
:100710000123002CA9D0FFF7E5FD431F9C40762361
:100720005B42181AA0E728000323002C9DD1013B4F
:100730009BE701218140A6200D00C0000540014239
:100740001ED190208000014246D1B938FF380142C5
:100750009CD003990291022BD0D0032B42D00021D0
:100760000800012BB6D1029B4902490AC005084383
:10077000DB07184305B0F0BD0F2804D00B28E8D0E4
:100780003C00019BE7E78023DB031F4201D01C42B2
:1007900026D08021C9033943FF20E4E7320099E7DE
:1007A000012300211B1A08001B2BDCDC9E322100D8
:1007B0009440D940631E9C4121434B0704D00F2332
:1007C0000B40042B00D0043180230800DB041840C8
:1007D000194209D1C908C6E780270295FF03D8E767
:1007E000039B02932700D4E700210120BBE7C0460A
:1007F000FFFFFFF7F0B543025A0A85B04F024400ED
:1008000002924E007A0A9446C50F0092240E9B096C
:10081000360EC80FD200FF2E02D10100002A01D1EE
:1008200001214140A01BA94200D093E0002836DD01
:10083000002E13D1002A07D0461E012802D1012420
:100840009B181EE0FF2810D1DB08FF285ED1002B8B
:100850005CD08022D203FF20134357E0FF2C00D14D
:100860003DE180210600C9040A4301211B2E07DC5B
:100870002020801B11008240F140501E8241114314
:100880005B185A0100D412E1601CFE2C00D1D6E0A6
:10089000012296491A405B080B40134358E0002898
:1008A00020D0301B002C08D1002B04D0441E01287E
:1008B000C5D0FF2808D11300C6E7FF2E00D108E1FC
:1008C00080210400C9040B4301211B2C07DC2020DC
:1008D000001B19008340E140581E83411943340036
:1008E0008B18CEE7FE21601C08422DD1002C18D1B8
:1008F000002B00D1EBE0002A00D1DFE09A182000A5
:10090000D308520102D50120794A1340FF22C005C5
:10091000D2055B0210405B0A1843ED07284305B07F
:10092000F0BD002B00D1D4E0002A00D1D2E080211C
:100930000298C903884203D30098884200D213006A
:10094000DB089C46019581E0FF2878D09B185B0866
:100950000400ACE0002827DD002E1DD1002A00D1C4
:1009600072E7461E012802D19B1A01240EE0FF28DF
:1009700000D169E701211B2E07DC2020801B11001C
:100980008240F140501E824111435B1A5A0100D44B
:100990008DE09B019E0970E0FF2C00D19FE080213B
:1009A000C90406000A43E5E7002825D0301B002CC7
:1009B0000CD1002B07D0441E012802D10D00D31A00
:1009C000D3E7FF2809D113000D003DE7FF2E00D12A
:1009D00082E08024E4042343040001201B2C07DC74
:1009E00018002025E0402C1BA3405C1EA3411843A7
:1009F00034000D00131AC9E7FE27661C03963E401B
:100A00000196039E3E4233D1002C1AD1002B06D111
:100A10001D00002A00D179E70D00009B76E7002A2F
:100A20004CD09E1A770106D50D00D31A00208342C0
:100A300000D16BE78CE7331E00D005E725000023CB
:100A400064E7002B05D1002A4BD001916346019D3C
:100A5000FFE6002A3ED08020029CC003844200D2E0
:100A60006EE7009C844200D36AE713000D0067E73D
:100A70009E1A770114D50D00D61A3000FFF732FC0C
:100A800033000538834084420EDC2022001B0130F5
:100A9000121A19009340C1405A1E93410B43C5E7F7
:100AA000002EEAD10500CAE7124A241A13405A0759
:100AB00004D00F221A40042A00D004335A010ED564
:100AC000601CFE2CBBD00A4ADB0813401EE7130053
:100AD000ACE71300FF20B7E613000D00FAE7200093
:100AE000B2E68023DB039C46B0E7C046FFFFFF7DF4
:100AF000FFFF7F1FFFFFFFFB41024300C20F490AB8
:100B000000201B0E7E2B03DD9D2B02DD084BD01831
:100B10007047802000040843952B05DD963B9840E4
:100B2000002AF5D04042F3E79621CB1AD840F7E7E8
:100B3000FFFFFF7F70B503000400051E0ED0C21733
:100B400085185540C40F2800FFF7CCFB9E231B1AC5
:100B5000962B0ADC08282BD0083885406D026D0AD8
:100B6000D8052843E407204370BD992B1BDD020004
:100B700029001B3291400A00511E8A410521091AA1
:100B8000CD4015430B4A2A4069070FD00F210D4075
:100B9000042D0BD00432D508510107D59F23064AF6
:100BA0001B1A1540DAE7421F9540EBE7D508D5E759
:100BB0009623D3E7FFFFFFFBFFFF7F1F002310B546
:100BC0000400984209D0FFF78DFB9E231B1A962B39
:100BD00008DC082829D0083884406402D805640A53
:100BE000204310BD992B1BDD020021001B329140D8
:100BF0000A00511E8A410521091ACC4014430C4AAF
:100C0000224061070FD00F210C40042C0BD004327E
:100C1000D408510107D59F23064A1B1A1440DCE76C
:100C2000421F9440EBE7D408D7E79623D5E7C046A8
:100C3000FFFFFFFBFFFF7F1FF0B58BB0009201931A
:100C40000D034B00CA0F06002D0B5B0D039200D164
:100C500011E1CE4A934200D135E1ED00420F2A4323
:100C600080252D041543CA4AC4009B181F00002389
:100C70000293019B00981E035A00DB0F360B520DA6
:100C8000049300D12EE1C14B9A4200D150E1430FB1
:100C9000F60033438026BE4936041E43C300501875
:100CA0000022C11906910131009102998800104378
:100CB0000A2800DD76E10399049F79400391022818
:100CC00000DD44E10138012800D853E1190C9BB242
:100CD00002911900220CA4B2514320008C46029FBD
:100CE000029958435143674305916744010CC91960
:100CF00004908C4505D9802040028446059F6744B6
:100D00000597080C84466846008A09040918099169
:100D1000310CB6B2049130003100049F614350435E
:100D20007C437A4324180F0C3C19A04202D980203E
:100D300040021218200C8218240489B2079262180B
:100D40000892089962468C46290CADB22800029F91
:100D500058436F434B4362449446029CFF18020C75
:100D6000D2194C43934202D980235B02E418130C3E
:100D70001B1902932B0080B21204121804987343BB
:100D800045434E434143A8191D0C2D18AE4202D9CC
:100D9000802040020918059F089867448742B641A1
:100DA000BF189742924128049BB2C018079B764215
:100DB000C01853420493029B84199C46A444634682
:100DC000049AB442A4419B18079A6442904280411D
:100DD000029A4042044394458041049A2D0C934268
:100DE00092414042524210436419099A24186418EF
:100DF000790211434A1E9141FF0DDE0D6402394311
:100E00005B0226430B43E40100D4DEE001215A08D3
:100E10000B401A43F307CE401343009A5D49521822
:100E2000002A00DCD4E0590709D00F211940042919
:100E300005D0191D99429B415B42F6180B00F10148
:100E400006D58021C9008C46534A1640009A624458
:100E500052498A4200DD07E17407DB081C43F608AB
:100E600013053603039A360B3343D207134320008E
:100E700019000BB0F0BD2C0004432BD0002D16D070
:100E80002800FFF72FFA040002000B3C1D2330005E
:100E90001B1B1100D84008398D4003002B4335003F
:100EA0008D403F492C008A1A17001D00DFE6FFF72E
:100EB00019FA04000200153420321C2CE6DD330040
:100EC00008388340EDE704002C4307D11F002500BC
:100ED0000223CDE6250027000123C9E61F000400F8
:100EE0000323C5E6009B334329D0002E14D03000E5
:100EF000FFF7F8F9010003000B391D221800521A00
:100F0000009908388640D1403143009E86402448ED
:100F1000C01A33000E00C3E6FFF7E4F90100030036
:100F2000153120331C29E8DD009908388140EEE7AF
:100F3000009B334307D110001E000222B1E61E00C1
:100F400018000122ADE6030010000322A9E60121EA
:100F50008140A6200F00C0000740014226D190200A
:100F60008000014276D1B938FF38014200D1ADE6A8
:100F700004990391022A77D0032A72D0012A00D063
:100F80004BE70026340032006AE7C046FF07000046
:100F900001FCFFFFFF030000FFFFFFFEFE07000054
:100FA0000DFCFFFF0F2805D00B28E1D02E002300F9
:100FB000029ADFE780221203154201D016424ED07A
:100FC000802636032E432C4A4AE7069A009224E7ED
:100FD0000120801A3828D4DC1F2827DC2749009AF2
:100FE0008C461C006244310093409140C4401A007A
:100FF0002143531E9A410B00C64013435A0709D0A0
:101000000F221A40042A05D01A1D9A429B415B42C6
:10101000F618130080213000090408400E4226D142
:101020007407DB0802001C43F60819E71F21494238
:101030008A1A3100D1400022202805D01048009A99
:10104000844662449640320013435A1E9341002660
:101050000B43D3E780253C0003972D03B0E7049AA8
:10106000039235001C00ABE700263400ABE70026F6
:1010700001223400F4E6C046FF0700001E04000011
:101080003E040000F0B585B002920393CB0F0D0330
:101090000193039B4C006D0A410F1F032943DE0F90
:1010A0005D00029B7F0A5B0F029A3B43BD4F640DBC
:1010B000C0006D0DD200BD4203D11F00B4461743DE
:1010C00002D101277740BC46019E671BB44500D082
:1010D0002DE1002F00DC7AE0002D3CD11D001543EE
:1010E0001ED07D1E012F18D1821882428041C9185E
:1010F0004042091810000B0200D401E1A94B01374E
:101100009F4200D187E20122A74B024019404308C9
:101110001343C80718434908F2E0A24EB74222D150
:101120004A07CB089F49C00802438F4206D11100ED
:10113000194300D172E2802109030B4310009B4A3E
:101140003F051B0317401B0B1F43019BDB071F437E
:10115000390005B0F0BD934DAC4200D1D9E18025F6
:101160002D042B433D00382D2CDC1F2D19DC2026AF
:101170001F00761BB740BC4617000296EF4066463C
:101180003743029EEB40B2401600721E96413E432A
:10119000361886428041591840420918270030000D
:1011A000A9E72E001F00203EF7400026202D03D087
:1011B0004036761BB3401E001643731E9E413E43CD
:1011C0000023E5E713431E00731E9E41F8E7002F3E
:1011D00050D02F1B002C12D10C0004430CD07C1ECD
:1011E000012F06D1801890429241C91852428918A5
:1011F00081E76C4EB7420AD11900100090E7694CA4
:10120000A54200D101E28024240421433C00382C73
:101210002BDC1F2C18DC20260F00361BB740BC46E9
:1012200007000296E74066463743029EE140B04021
:101230000600701E86413E43B01890429241C91884
:1012400052422F00891856E726000F00203EF74033
:101250000026202C03D04036361BB1400E0006433A
:10126000711E8E413E430021E6E701430E00711ED0
:101270008E41F8E74E4D671C2F4233D10D000543D8
:10128000002C14D1002D00D1B9E11C00144300D171
:10129000B7E1821882428041CB1840421B181902E4
:1012A00000D4ACE1404910000127194038E7002D77
:1012B00000D1AAE11C00144300D12AE14C07C00868
:1012C00020438024C9082403214206D0DD0825429A
:1012D00003D12900D0085B071843CA00410F11430E
:1012E000C00016E12F4CA74200D194E1821882423F
:1012F0008041CB1840421B18D807520810435908A8
:10130000430709D00F230340042B05D0031D83425C
:1013100080414042091818000B0200D400E7214B1D
:1013200001379F4200D176E11F4B1940F8E6002FAC
:101330005FDD002D3ED11D00154300D1F0E67D1E7E
:10134000012F0DD1821A90428041C91A4042091AD8
:1013500010000B02D4D549023C004D0A029004E172
:10136000104EB74200D1DBE6382D3DDC1F2D2ADCC4
:1013700020261F00761BB740BC4617000296EF40A0
:1013800066463743029EEB40B2401600721E9641FD
:101390003E43861BB0428041C91A4042091A2700C9
:1013A0003000D6E7FF070000FFFF7FFF0000F07F5F
:1013B000FE0700009A4DAC4200D1AAE080252D0422
:1013C0002B433D00D0E72E001F00203EF7400026B3
:1013D000202D03D04036761BB3401E001643731EEB
:1013E0009E413E430023D4E713431E00731E9E41DB
:1013F000F8E7002F51D02F1B002C14D10C00044310
:101400000ED07C1E012F08D1101A82429241591A27
:101410005242891A634601939BE7814EB7420AD133
:1014200061460191E8E67E4CA54200D1EBE08024C4
:10143000240421433C00382C2ADC1F2C17DC2026F6
:101440000F00361BB74001963E000700E7403743C8
:10145000019EE140B0400600701E86413E43901B55
:1014600082429241591A52422F00891AD2E726002D
:101470000F00203EF7400026202C03D04036361BBC
:10148000B1400E000643711E8E413E430021E6E747
:1014900001430E00711E8E41F8E7624E651C354215
:1014A00050D11D000E0015430643002C29D1002EFB
:1014B0000FD1210020000194002D00D130E6100052
:1014C000624601920100194300D1A1E019000027F2
:1014D00016E7002D00D194E0851AA842B641CC1A37
:1014E0007642A41B260206D5101A824292415B1A4C
:1014F00052429B1AE4E7280020435CD023002800D6
:10150000E0E7002E07D1002D7DD180213800019722
:10151000C903434F04E6002DFBD04C07C00820430D
:101520008024C9082403214208D0DD08254205D1C2
:101530005B07D0081843634629000193CB00410F95
:101540001943CDE6851A0295A842AD416D422E00A1
:10155000CD1AAD1B2E022BD5101A824292415B1A76
:1015600052429D1A634602900193002D26D0280016
:10157000FEF7B8FE083807002023029ADB1BDA408A
:101580000298BD401300B8402B43BC4233DC3F1BE4
:10159000791C1F291EDC20221D00521A04009040D5
:1015A0009540CC40421E90412543CB40284389E7DB
:1015B00002982843D9D101000190B1E50298FEF7C5
:1015C00091FE070018371F2FD6DD029B0838834095
:1015D0002800DAE71C001F3FFC400022202903D02E
:1015E0004032521A93401A000243531E9A4120007F
:1015F0000023104366E70C49E71B194080E6100002
:1016000060E70B005EE7614601911900100080E77A
:1016100008000F0084E50021080081E50B008DE53E
:10162000FF070000FE070000FFFF7FFF10B503006B
:101630000400021E0CD0FEF755FE0B4A121A0A28AF
:101640000DDC0B2321001B1AD94015300B00844000
:101650001B031B0B12051A432000110010BD2300B1
:101660000B3883400024F3E71E040000FE2270B50F
:101670004400240E4302611C5D0AC60F11420DD0C6
:10168000E0229200A4181B0B6D071B031B0B240503
:10169000F6071C4334432800210070BD002C18D1EC
:1016A0002300002DF1D02800FEF71CFE0A280ADCDA
:1016B0000B232A001B1ADA40130002001532954052
:1016C000094C241AE1E703000B3B9D402B00250049
:1016D000F6E7002D06D01A0B80231B036D0713437A
:1016E000024CD2E72B00FBE789030000FF07000054
:1016F0008446100062468C461900634600E0C046EE
:101700001FB500F0EFF8002801D40021C8421FBD2A
:1017100010B500F047F84042013010BD10B500F0A0
:10172000E1F8002801DB002010BD012010BDC046FB
:1017300010B500F0D7F8002801DD002010BD012011
:1017400010BDC04610B500F069F8002801DC00208B
:1017500010BD012010BDC04610B500F05FF8002894
:1017600001DA002010BD012010BDC04670B5002276
:101770000B4B04000D00FFF7EFFF00280BD0084BC8
:10178000002220002900FFF77DFC00F00FF98023E4
:101790001B06C01870BD2000290000F007F9F9E70A
:1017A0000000E041F0B5CD0F87B01F0302953D0B5F
:1017B000DF0F0397184F0E034C0001955D00059055
:1017C000360B640D04926D0DBC4206D10100012060
:1017D00031431CD1A5421AD101E0BD4203D1019988
:1017E0000120114313D10120AC4210D101998E4246
:1017F0000DD10499059DA94209D10299039DA942E1
:1018000007D0002C03D130001043431E984107B08D
:10181000F0BD0020FBE7C046FF070000F0B587B031
:101820000090019100990198049101992C4F0903AE
:10183000090B8C460199C50F4900490D1C0358003E
:1018400003910592240B400DDE0FB94203D1674688
:1018500000990F4335D12249884202D1270017430E
:101860002FD100270399B94205D16146009F0F434C
:1018700039004F424F41002825D12243002F06D086
:10188000002A2AD00120002E27D1023825E0002A84
:101890001BD10120002D20D040421EE0039B83423B
:1018A000F0DBA445F5D808D1049B059A9342F0D803
:1018B000049B059A002093420FD20120002D0CD1E9
:1018C000E3E70220E8E7002FDCD1AE42E1D1039B41
:1018D0008342E3DD0120002EDED107B0F0BDC0461B
:1018E000FF070000F0B587B00090019100990198C2
:1018F000049101992C4F0903090B8C460199C50FDE
:101900004900490D1C03580003910592240B400D1A
:10191000DE0FB94203D1674600990F4335D1224902
:10192000884202D1270017432FD100270399B942DB
:1019300005D16146009F0F4339004F424F410028B7
:1019400025D12243002F06D0002A2AD00120002EC4
:1019500027D1023825E0002A1BD10120002D20D0FC
:1019600040421EE0039B8342F0DBA445F5D808D13A
:10197000049B059A9342F0D8049B059A0020934259
:101980000FD20120002D0CD1E3E7022009E0002F47
:10199000DCD1AE42E1D1039B8342E3DD0120002E86
:1019A000DED107B0F0BDC046FF0700000B0070B5E8
:1019B000114E0C0349000200240B0020490DDD0FDD
:1019C000B14204DD0D48814202DD0D4BE81870BDC7
:1019D0008020400320430B4C641A1F2C08DC0A4E65
:1019E000E240891988401043002DF0D04042EEE7D4
:1019F000064B5B1AD840F7E7FE0300001D04000009
:101A0000FFFFFF7F33040000EDFBFFFF1304000026
:101A10000023C25C0133002AFBD1581E7047F7B582
:101A2000040C0D0091B20F0061438C460600019337
:101A300083B2100C5F43444358433B0C60441B1873
:101A4000994202D980214902641801995543714392
:101A5000180C04191B04BFB24919D819091903B08D
:101A6000F0BDD0B50021041CFEF714FC00280AD0FC
:101A700080231B06E018FEF7C3FC002746428F4177
:101A800030003900D0BD201CFEF7BAFC06000F0064
:101A9000F6E7F0B587B006000F00059204938B427D
:101AA00000D966E001D1824263D804990598FEF717
:101AB00037FC390001903000FEF732FC019B04999D
:101AC0001B1A1A0005980193FEF7C6FB04000D00CF
:101AD000B94246D801D1B04243D801200021019A31
:101AE000FEF7BAFB361BAF4102900391019B002B1E
:101AF0002ED0E90762080A4301996B088C4601243D
:101B00000025BB4232D801D1B2422FD83000390073
:101B1000801A9941001849410019694106000F00D7
:101B2000012149428C4461460029EAD1029C039D6F
:101B300030003900019AFEF775FB019AA4197D4126
:101B400006000F00FEF788FB241A8D4102940395CE
:101B50000C9B002B01D01E605F600298039907B0B8
:101B6000F0BD0022002302920393BFE7B6197F4124
:101B7000D6E70023002402930394E9E7F7B51700A2
:101B80001E0004000D0000F0B2F802000B000090EF
:101B9000019138003100FFF742FF241A8D41089B64
:101BA000009801991C605D6003B0F0BD70B54B00FA
:101BB000440245004E02C20F640A01202D0E760A2F
:101BC0001B0EC90FFF2D06D1002C13D1FF2B11D1F5
:101BD000002E06D00EE0FF2B0CD09D420AD1B4425D
:101BE00008D100208A4205D00130002D02D120000A
:101BF000431E984170BD30B5420245004C02C30FF0
:101C00004800520A2D0E640A000EC90FFF2D01D1A3
:101C1000002A19D1FF2801D1002C15D1002D20D187
:101C2000002813D1002A1ED1002C21D00120002928
:101C30001ED102381CE08542F8DBA2420CD80020FD
:101C4000A24215D20130F2E7022008E0002AEDD0CE
:101C500099420AD18542EEDD0120002908D0404298
:101C600006E00028F4D1002CF2D10120002BF6D19F
:101C700030BD30B5420245004C02C30F4800520A45
:101C80002D0E640A000EC90FFF2D01D1002A19D1B3
:101C9000FF2801D1002C15D1002D20D1002813D10F
:101CA000002A1ED1002C21D0012000291ED102388B
:101CB0001CE08542F8DBA2420CD80020A24215D2DB
:101CC0000130F2E7022011E0002AEDD099420AD15A
:101CD0008542EEDD0120002908D0404206E00028C0
:101CE000F4D1002CF2D10120002BF6D130BDF0B59B
:101CF0001D00002389B01400009001910693002973
:101D000009DA00980199002342428B410092019325
:101D100001235B420693002D07DA069B2200DB437A
:101D200006932B00002554429D41009E019F019B7C
:101D300007949D4200D96DE003D1009A944200D9E6
:101D400068E029000798FEF7EBFA04000098019973
:101D5000FEF7E6FA241A220029000798FEF77CFA1B
:101D6000019A0290039191424CD802D1009A90427C
:101D700048D8029A039B009E019F0120B61A9F41FA
:101D800000212200FEF768FA04900591002C2DD066
:101D90002500039B0298D90742080A4303994B0880
:101DA000BB4234D801D1B24231D830003900801A58
:101DB0009941012600184941002736184F41013D3D
:101DC000002DEDD1049A059B92197B4130000092C1
:101DD000019339002200FEF725FA2200FEF73CFAB3
:101DE000009B019C1B1A8C4104930594049805994F
:101DF000069B002B04D003000C0000215842A14197
:101E000009B0F0BD0022002304920593BEE7B61985
:101E10007F41D4E700230024E6E7000030B504004A
:101E2000080087B0009001206946019004930020CB
:101E30000723087203920B7502220B7D044813439B
:101E40000B7583689D682300A84707B030BDC04666
:101E5000B0FE00000923F0B50025162497B00C93BE
:101E6000033B0D9304ABE4182900142211A825802C
:101E70000DF0D4FD402344211394022404AA1293AC
:101E80005218343B137004AB14949D74884E300088
:101E90000DF03FFAA84205D186480AF031FE002035
:101EA00017B0F0BD844F38000DF033FA002801D18F
:101EB0008248F2E7BB680CA938001B689847011EEE
:101EC00003DA7F480AF01CFEE9E7122204A952183F
:101ED000132104AB04A8DD74091801232920FFF79E
:101EE0009DFF04AB997C77480AF00AFE3E220AABBC
:101EF0000EA9FF320E931A804C600C720B7A3D3A99
:101F00001C43B3680C729C6830002923FF3AA04739
:101F1000FA200021400008F0D7FD0321F622080036
:101F2000120201F0B5FF0490002800DBBBE001F0D5
:101F3000A1FD654A654B115818000AF0E1FDFF2626
:101F40002821082304AA52180AAD137029202A0058
:101F5000023B0EA9FFF762FF5D4C00280BD12B78E6
:101F6000E3716B782372AB786372EB78A3722B7991
:101F7000E3726B7923732821002304AA521809AD58
:101F800013704F202A0002330EA9FFF747FF0028E5
:101F90000CD1FA212B884F48DBBA58438900FEF751
:101FA000EBF883B21B0A30406071A371424811A95B
:101FB00083685B689847011E16D1162304AA9B18F4
:101FC0001888454A0023FFF72AFD0E900F9109203B
:101FD0000EA905F017FC002806D10E9B1B0B9AB228
:101FE000120A3340E37022710DF05CFC0A220023D8
:101FF000FEF7E6F9020AA378A273020CE273627894
:102000001B02134301339AB205923340A5796370E2
:10201000130AA37063792D021D436073000E0A2119
:1020200020742800FEF762F883B206932379E278E1
:102030001B0213430793237BE27A1B0213431B0407
:102040001B140393A37A627A1B0213431B041B1411
:102050000293237AE2791B0213431B041B140A2107
:1020600028000193FEF77EF8002789B2069B0091B5
:10207000079A059919480AF043FD049BBB420DDB02
:10208000122221003B0004980197009701F030FFD5
:102090000100B84202DB12480AF032FD002111486B
:1020A00008F012FD4CE710480AF02AFD47E7C04649
:1020B000B0FE00000C08010094FE0000230801009F
:1020C0003A0801005E0801000C00000080080100D1
:1020D000E805002071020000E40C0000C1080100C6
:1020E000F408010010270000AE080100F7B500AFAA
:1020F000796000296FD005680C1F641BE408E300B9
:102100003B60EB18598801220B001340114213D198
:102110006E4688B06A463149059179680691032177
:102120000491C2212E481032490100F02BFFB54620
:1021300062B60423181C02DF210028000AF04BFBC2
:102140002018C3005B5BC01A844214D06E4688B06E
:102150006A46244B05937B68069303230493C221AC
:1021600000231F481032490100F00CFFB54662B64B
:102170000423181C02DF0122E300EE1873882100FB
:102180009343738028000AF026FB012223187B600A
:10219000DB00EB185B88134208D1280079680AF04D
:1021A00061FB210028007A680AF0AAFB3688A61B8A
:1021B000F300EB185B88DB0709D4310028000AF034
:1021C00051FB2200310028000AF09AFB3400210064
:1021D00028000AF005FBBD46F7BDC04664090100B2
:1021E000280101003B09010010B502480AF088FCF3
:1021F000002010BD910901000E4A0300904203D354
:102200000D4A0120934214D30C4A002A05D0934270
:1022100003D30B4A012093420BD30A48002808D06D
:102220000021094A8342494193429241524211405E
:102230000800704780FD00007814010000000000D5
:10224000000000000000000000000000F0B597B0A2
:102250000593042313400A9307230291D1081940E0
:10226000013107001C9E0C91810700D0AEE1041DD6
:1022700000282FD1029919400B000C1D0821CB1A00
:102280000293059B0425013B0693002307930B93C0
:1022900004930193013B089303331A4003950D9275
:1022A000002F01D0059B23600C9B002B05DC0598BB
:1022B000FFF7A2FF002800D1C3E00D9B002B00D147
:1022C000E3E00120E31B80229200934200D2BDE0B4
:1022D000162003E0029B072BD3D81C20404211E1BB
:1022E00008250395069B01330693069B98780028E2
:1022F00000D1FCE0019B002B08D12528F2D1089BDE
:1023000001330893012301930425EAE77A284FD883
:102310004B2813D847284BD8292831D8252844D012
:10232000002301932528DDD803002038233B5A429F
:1023300053414242504103430193D3E74C382E2886
:1023400036D8FDF7B5FECF3535353535353535352C
:1023500035353735353535353535356235373762CD
:102360006262CF37CD35CF3518371835357AE1373A
:1023700035353735E100002309930425019327E023
:1023800001210B002A38C0B28340914A1342A9D1DF
:10239000E222180092051040134236D11A000A407A
:1023A00001920B429ED0099013E0089B013B0893D9
:1023B0000023C1E70022069B09925B7801926C2BF7
:1023C00007D10425069B03951B786C2B01D16D1951
:1023D0000395013C60192900FDF788FE684304005D
:1023E000002F06D0039B029ADB1B1B18934200D9D7
:1023F00073E7099B002B61D0069B023306930C9B6D
:10240000013B0C9308CE05934AE7072107368E431C
:1024100064188C430CCE002F08D00131C91B0298E0
:102420000919814200D958E722606360002308251A
:1024300001932B000834039354E7019B0993002375
:102440009BE70D9AE31B002A00D03CE7049A0F2A71
:1024500000D93DE7002F20D09B08DBB29C466146A7
:102460000EAB9954049B089912AAD154002810D09D
:102470008022634652421343049A0EA98B54079B51
:1024800001330793049B01330493069B0434013BFF
:102490002AE70B9B01330B93F4E7029B002802D041
:1024A00001330293EEE7023302930A9B002BE9D13A
:1024B0000598FFF7ADFA029B1B18F2E7039B042B6C
:1024C00007D1331D002F01D0326822601E00043472
:1024D00008E70722F31D93431E000836002F03D0A0
:1024E0001A685B682260636008230834A3E78022CF
:1024F000E31BD200934200D3EAE6002F04D10298F6
:102500000838C01817B0F0BD9B082C2238603B700B
:102510006B469B180A9A1B78002A0BD0FB70079B0E
:10252000BB70002B1AD100250EAE049BAB421CD110
:10253000E01BE7E77B70F2E7C656195C002E08DA6D
:1025400065462940029D1619AE4200D9C5E62170A4
:102550000134013304999942EED1E4E77F22944695
:102560007E3A00230EA8D21BF4E7079B002B02D073
:1025700033787F2B1BD80A9B002B1BD012ABEB5C54
:1025800023700023013401930123019ADB1B1B19E3
:102590009B18029A934200D99FE63378019A2370E0
:1025A0000134200005990DF030FA019B1C1901350A
:1025B0000136BAE733789B00FB181A6805920A9A2D
:1025C00005981A60FFF724FA431CDCE70E2085E625
:1025D000DAFF0000F0B595B000AF0600F9637A6449
:1025E000BB6300290AD104788378A400E4184578F5
:1025F0000419FB6B9D4223D8A31BFB63B378012214
:102600001C00B96E1140621E94417963F2780C404F
:10261000BA61002A02D0BA6E92071BD4002C19D1DD
:102620007B6C002B08D0BA6BF96B30009847210007
:102630002000BA6B7B6C9847F86BBD4615B0F0BDB7
:1026400001342000FFF7E4F9FB6B0130013324185B
:10265000FB63CEE7327892007A6172687A607A69B9
:102660009A183A61B118BA695200FA60D218202A51
:1026700000D938E10422B86E10407862B86E10427A
:102680000CD0033A9A400024551EFB623C6401338F
:102690003B630023B962FB613B6240E07A6B002A36
:1026A00000D19AE001229A401C00013A3A647A6A09
:1026B000FA621500EBE7BB6A5B789B009859FFF75D
:1026C0009BFD7B6C3860002B61D0BB6A78681B78FF
:1026D0001900BB600AF0F1F9002858D06B468AB0A7
:1026E0003B606A46814B05937B680693BB68079302
:1026F00080239B0013847E4B0493922100237D480A
:102700001032890100F03EFC3B689D46FB690133B5
:10271000FB61BB6A0233BB623B6B02333B63FB6909
:10272000BA699342C7D34C23F8183378037073788F
:102730001B1943703B6AC370FB6A83707B6C002B70
:1027400050D17C6933193B63002D5BD13B6C002B6E
:102750006FD1FA683B699446FA6B6344D51A9A4282
:1027600000D1BAE07A6C6019002A00D165E7F01850
:102770002900BA6B7B6C98476419002800DA5CE783
:102780000021BA6B08007B6C9847200055E73B6836
:10279000002B15D07B6B002B07D001233A6B013443
:1027A00093403A6C1A433A64B0E77B6A002BADD091
:1027B00001233A6B93401D43FB6A0133FB62A5E79B
:1027C0000222BB6E1342E8D103223B6B013B9A40CD
:1027D0003B6A154301333B6298E77C6B2200FC6245
:1027E0003C6466E70421BA6B7B6C9847002800DAEA
:1027F00023E77B69BA6B191F301D7B6C9847002853
:102800009FDA1AE72800FDF797FD4B220300B8185E
:102810003A6BD25C027001229A407B6C9543002B8C
:1028200005D00121BA6B9847002800DA05E701348A
:102830008AE7386CFDF780FD4B213A6B0300125C90
:1028400078180270920092597A6301229A4013001C
:102850003A6C9A437B6C3A64002B08D0BA6B4A39C5
:102860009847002800DAE8E6FB6E002B1BD1002118
:102870007B6B0134002B01D11F4B7B637B6C002BE6
:1028800019D1786BFFF7C4F8FB6E01300419002BE7
:1028900000D15BE73B6F9D4200D357E7FA6E6B00B8
:1028A0009852013552E73B6F9D42E0D2FA6E6B00C1
:1028B000995A0135DCE7002909D089B2BA6B786BE7
:1028C0007B6C9847002800DAB7E624183EE7786B5F
:1028D000FFF79EF8013081B2F0E77B6C2000002BFF
:1028E00000D04DE7A9E61C204042A6E6D60901002B
:1028F00004000001D0000100CF090100014B186065
:102900007047C046D004002010B5334A334B116ADB
:10291000194042230B431362D3681B07FCD50021E7
:102920002F4B99605978C909FCD18321490259601C
:102930005978C909FCD16F31FF319182D16889077B
:10294000FCD50221FF3199605978C909FCD125498C
:1029500059605978C909FCD18221C9015980912156
:102960008900918420482149006809688005890E02
:102970008902800D014391621D49D162D168C90667
:10298000FCD50221908C01439184D1680906FCD5C5
:10299000D1684906F9D51E21164C606888431A395A
:1029A000014361608021490099605978C909FCD1CF
:1029B000114959605978C909FCD110499960597871
:1029C000C909FCD10E4959605978C909FCD1136A6B
:1029D00002318B43136210BD000800400000FFCF9E
:1029E000000C004001052100286080002460800068
:1029F000B805FF7D0040004100070100030600000C
:102A000003070100F7B5050006002800FDF794FC58
:102A100001238340DA430F4F04019D433B19019387
:102A20001B7B0092002B0CD0E3591B69002B0CD1AF
:102A3000009B3C191E4063680422196801980AF043
:102A40008BFB002DE1D13000FEBD381998470028DE
:102A5000F7D1EDE740010100F0B5002289B00F4940
:102A60000F480CF06BFF0024002600270E20C02228
:102A70000C4D03900696079728000B4B0B490494C6
:102A8000029401940094920007F090FD08492800F8
:102A90000CF02FFE200009B0F0BDC046B52A0000A2
:102AA000E00C002050080020C52D00003019002047
:102AB000950A010010B5024807F0CEFA10BDC046D5
:102AC00038070020F7B500901F4801910AF023FB5A
:102AD000061E35D000252800FEBD237B002B11D01B
:102AE0002368DB68002B01D02000984763689F7142
:102AF00023681B69002B1BD163680422200019681E
:102B00000AF02AFB01361034104B9C42E5D3009B9F
:102B1000002BE0D0002DDDD02800FFF773FF019BD4
:102B20000500002BF6D06420002107F0CDFFF1E76F
:102B3000200098470028DFD03B00B3401D43E1E769
:102B400005000127024CDFE70411002050010100BD
:102B500040010100014B8000C0587047F4030100A0
:102B6000030010B50800002B05D0044A136000F0E4
:102B70009DFC002010BD16204042FBE7D40400203D
:102B800010B5012104480AF043FA002802D1034895
:102B900007F062FA10BDC04600110020380700207F
:102BA00010B5040007480AF0B6FA002C03D0012142
:102BB00005480AF020FA054808F0D0FA044807F062
:102BC0004BFA10BDF8100020FC100020E00C002093
:102BD0003807002010B5002101480AF019FA10BD8D
:102BE000F810002070B5FFF7F5FF0500084C094B01
:102BF0009C4200D370BD63685B79002B06D02368CC
:102C00005B68002B02D02900200098471034EEE7C3
:102C1000400101005001010010B5044C044920009E
:102C20000AF078F8034B1C6010BDC0461006002067
:102C3000E0030100F01000200023FA210C4A10B537
:102C400013700C4A890013600B4A0C481360FFF79D
:102C500087FFFFF7E1FF0A4B0A4918008B4200D3B8
:102C600010BD1A1A5C681211013222711033F5E797
:102C700028190020F8100020FC10002021D10000AD
:102C8000400101005001010010B5044C0100002278
:102C9000002320000AF05FF810BDC0461006002097
:102CA00010B502480AF0EBF810BDC046100600202F
:102CB00010B5034B010018680AF035F910BDC04685
:102CC000F010002010B502480AF064F910BDC046AB
:102CD0001006002070B523480AF098F90300002080
:102CE000834229D0FFF7DCFF1F4C051E2FD11F4B5D
:102CF0001F4C1B68002B11DD0CF0D4FD0A220023B1
:102D0000FDF75EFB22686368801A9941002903D1B0
:102D1000FA239B00984201D9FFF764FF2268636899
:102D2000FA200021800012184B41002022606360CD
:102D3000854201D0FFF7C6FF70BD63685B79002B49
:102D400004D02368290020001B6898471034094BE1
:102D50009C42F2D32800FFF7ABFF012106480AF09E
:102D60004AF9C4E70011002040010100F8100020DA
:102D7000D80C002050010100FC10002070B50E4D51
:102D8000297800290CD10120FFF79CFE0B4C0C4B3D
:102D90009C4206D3FFF79EFF0028FBD101232B7036
:102DA00070BD63685B79002B03D0236820009B68AB
:102DB00098471034EBE7C046281900204001010075
:102DC00050010100F7B500210800FFF77BFE041E4B
:102DD0002DD0FA2700267F0000F04CFE1C4B1D4A28
:102DE0001B581360002B06D01B4B1B68092B02DD00
:102DF0001A4807F031F900230093002C07D0200077
:102E0000FFF700FE041E02D101277F423E00FFF7BC
:102E100061FF0190002808D1009B114D002B13D1B8
:102E20000E483A00330007F04FF9019BE4E7012711
:102E30007F423E00D0E72B689B69002B03D0002225
:102E40002800110098471035064B9D42F3D3E7E761
:102E500008000000F4100020FC10002038070020BB
:102E6000400101005001010013B514480AF053F964
:102E7000134B1B78002B08D0EFF3108472B6FFF7CA
:102E800029FF002C00D162B613BD0E4B1B68002B2E
:102E9000FAD0002809D1002200230B4800920193A8
:102EA00000230A4A08F03AF9EEE70928ECD106486F
:102EB00008F054F9064807F0CFF8E5E7FC100020C9
:102EC00028190020F4100020E00C0020102700003A
:102ED0003807002010B5064B04001B6898472100F6
:102EE000A060044809F0B1FFFFF7BEFF10BDC04667
:102EF000D404002010060020044B054A00209B1A31
:102F0000DB08994201D2C90088587047400101008E
:102F1000C8000100F0B55E1C85B0B5000090280027
:102F2000072317309843033080080F000192FFF702
:102F3000ABFE02AB04000322581D00210CF06EFD15
:102F400003AB1E70002C0BD0039B210023610023D8
:102F500014312A1F0198C058C85004339342F9D144
:102F6000E023BA015B001A406D02054B2A431A4068
:102F70002000002300990AF013F905B0F0BDC04607
:102F8000C0FF0F00F0B591B004AF3B600B035B0DC9
:102F90000E0078607A613B610C0D002B00D172E06D
:102FA000BB6018220C239B18DD1900237B626B6029
:102FB000AB60043302939B18FB1801930A23009320
:102FC00000222B00B9687869FFF704FB8023F860C2
:102FD0001B01984224D37B696C461A795B798AB0CD
:102FE0001B0213437A69927912041A437B69DB79D5
:102FF0001B06134304AA9361284B2949D3618023FC
:103000009B001384274B51611361922100232648B2
:1030100010328901FFF7B6FFA546BD460DB0F0BDE1
:10302000FB6817345B055A0D3A61204A1B0B1640AA
:103030001E43FB68E0180723984303308008FFF71E
:1030400023FE041E13D0030010337B62FB68184A72
:103050006B600023AB60043302931833FB180193B9
:103060000A230093B9682B007869FFF7B3FA3B692C
:103070000E4A5B0216401E43320020003B6879680E
:103080000AF08EF8C9E72000072317309843033071
:103090008008FFF7F9FD0400E9E7C046FF070000DC
:1030A000AA0A010004000001F8000100FF01F0FF7E
:1030B0006FD10000F0B587B00E9E0500140002919C
:1030C0000393002E15D00F9B102105930093002031
:1030D00033000D9AFFF7BAF8802307001B019842CE
:1030E00009D30221174A1848184B0AF079F807B09B
:1030F000F0BD3700300007232A001C401A40D200E0
:10310000A40114430C9A40020443120514430C9D7D
:103110001735E819984303308008FFF7B5FD051E01
:1031200009D0002E07D00F9B390000930D9A330071
:103130001030FFF78BF822002800039B02990AF059
:103140002FF8D4E7E90A0100F8000100FF070000AA
:103150004068002804D0044BC01AC00800B2704771
:1031600001204042FBE7C046C80001000EB417B57D
:10317000054C05AB04CB01002000019300F080FC5E
:103180001EBC08BC03B018473FD2000010B5CB06E8
:1031900004D4890603D50349FFF7E8FF10BD0249AF
:1031A000FAE7C046220B0100210B0100F0B591B0F7
:1031B0001F0018AB1B7804000D0007920493002B2E
:1031C00000D1A4E00226049A8C4B9B5C1C9A0993C4
:1031D0001C9B1E4001231A400A921C9A07331A4076
:1031E0000B921C9AF8331A400E9209F0B3FF002399
:1031F00002000593984204D020008149FFF7B6FFF2
:103200000590002E0BD044231C9A1A4243D12A0069
:1032100020007C49FFF7AAFF059B1B1805930A9B1A
:10322000002B0AD0049A784B9200D258002A00D181
:10323000764A20007649FFF799FF0E9B00255A42F7
:1032400053415B421F400B9BAB4208D0049A714B29
:10325000920020007049D258FFF788FF0500079BB5
:10326000002B05D01A0020006C49FFF77FFF2D18B6
:10327000002F0CD0099B6A49002B03D0049B042B20
:1032800000D168493A002000FFF770FF2D18059B18
:10329000ED1865483FE00020644B1E688642BBD0B5
:1032A000634B28001968FCF721FFFA253100FCF771
:1032B00059FFAD006943069008003100FCF752FF4A
:1032C0000D91E1210C9009010698FCF74BFF089144
:1032D00008983C21FCF70AFFE1210F9009010698AC
:1032E000FCF704FF06900D9831006843FCF7FEFEE2
:1032F0000C9B02903C2108980193FCF733FF2000BF
:1033000000910F9B069A4B49FFF730FF84E74A482C
:10331000049D012FBDD0199B002B03D022004749EB
:1033200009F097FB1B9B002B54D01B9F102F00D93B
:10333000102720001C99FFF729FF0026B54219DC51
:10334000002633001A9A2000D25C3D49FFF70EFF99
:103350000136102E14D007231E4203D12000394914
:10336000FFF704FF3300BE42ECD320003649FFF7DD
:10337000FDFEEDE720003349FFF7F8FE0136DDE7FB
:10338000002620003149FFF7F1FE33001A9AD25C83
:103390001300203B5E2B00D92E2220002C49FFF782
:1033A000E5FE0136102E0ED007231E4203D1200069
:1033B0002449FFF7DBFE3300B742E7D8200021495C
:1033C000FFF7D4FEEDE71A9BDB191A931B9BDB1B5F
:1033D0001B93A8E7049B002B0BD01C9BDB0704D599
:1033E00020000A4A0A49FFF7C1FE20001C99FFF796
:1033F000CDFE200009F017FF11B0F0BDAB130100A6
:10340000320B0100360B010004040100240B010003
:103410005C0B0100180401005F0B0100650B01004B
:103420002D0B0100290B01003FD200000C110020E0
:1034300008110020400B010065D20000813A000015
:10344000690B0100710B01006F0B0100730B010090
:10345000750B010073B5114A04000B000568914219
:1034600000D91300052168460D4A08F01DF8060032
:10347000A36828000B220B495B6809F0C5FEA3680E
:103480003200280069465B6809F0BEFEA368280088
:103490001B2205495B6809F0B7FE73BD0F270000CA
:1034A0005D0C01009F13010083130100012310B57F
:1034B00000211C00074A904207D8074A002900D182
:1034C00001231360054B186010BD210040085B000C
:1034D000F1E7C04640420F00081100200C11002007
:1034E00070B50D0004004618B44201D1280070BD2B
:1034F00021780348013483685B689847F4E7C04645
:1035000078FE0000F7B504000D001E00019207F0E0
:1035100049FB030000F0AEFA054F32003B50019921
:103520002800A04700F0A6FA385800F029FAC04653
:103530000800000010B5034A03480021121A09F0E0
:103540000BFF10BD2C190020500800200648074A28
:1035500010B5121A064909F003FF064A0648074942
:10356000121A09F0FDFE10BD000000204C080020DA
:1035700078140100000000200000002078140100F1
:10358000F0B585B000AF0C1EB8603ED009F0B7FAB8
:103590006E468AB06D4621686268A3680893052369
:1035A00024480691059007920493A1216A46224877
:1035B0001032002389017A60F860FFF7E3FCB5461A
:1035C00009F09DFAAD46E168226963692B62052323
:1035D0001A48A9616861EA612B61A12100237A6818
:1035E000F8688901FFF7CEFCB54609F088FAE3696F
:1035F0000121134AF86809F0F3FD09F080FAA36984
:103600000121104AF86809F0EBFDBB68012B0AD1D3
:10361000EFF3058509F073FA2B000B4A0648B968E9
:10362000103B09F0DDFD2100B86806F029F9BD4620
:1036300005B0F0BDB20B010020010100E10B01005B
:10364000100C01001F0C01004D0C010030BFFDE704
:10365000F7B50A4B0A4D0600EF18CC1B2A002000D4
:10366000084901930CF0D1F960190021019A0CF07E
:10367000D5F93800083CB4660830FEBD08000000EB
:103680000000000050010100F0B5484B8BB05E68AF
:1036900000AFF305DB0D04007B6062B6444D130EF2
:1036A000FF2B0AD1F33B1340082B14D109F027FA62
:1036B000012128003F4A09F08CFD09F020FA012180
:1036C00028003D4A09F085FD00210800FFF758FF5A
:1036D000BD460BB0F0BD01233B60120702D50023AD
:1036E0000C003B60002CE8D07B68032B3BD109F039
:1036F00006FA324A0121280009F06BFDA369304A1D
:10370000934202D32F4A934205D32F4A934248D380
:103710002E4A934245D2023B1B88FF221800DF212C
:103720009043090288423CD11340022B39D109F061
:10373000E6F9236801212800254A09F051FD266891
:103740000823FD182022210028000CF05EF93A68B9
:10375000EB69002A27D0DA0502D11E4A1343EB6138
:1037600029003000B2E709F0CAF9F82252001A4BDA
:10377000164200D1194B6E468AB06A4606937B68A2
:103780001749103B079380239B0005911384154B29
:10379000049391210023280010328901FFF7F2FBE6
:1037A000B5460026CCE75B0A5B02D8E700ED00E0F7
:1037B000200101008E0C0100B90C0100F50C010084
:1037C000B000000078FD0000000000200000002094
:1037D0000C0D0100FF010000750C0100600C0100E0
:1037E000280D0100040000010821024A53698B439F
:1037F0005361704700ED00E0EFF30880EFF30981BB
:1038000001B57246FFF740FF01BDC0460A4880F38C
:103810000888FFF779F872B608480949401880F31C
:103820000988EFF314800221084380F31488BFF362
:103830006F8F09F0ABFD0000803200208025002052
:103840000008000004207146014202D0EFF3098015
:1038500001D1EFF308808169023909780229FFD08C
:1038600001B5724609F080FD01BDC04643B20006B5
:1038700005D41F221A4001239340014A1360704768
:1038800000E100E030B5FF2503220B00290040B223
:103890000240D20091409B012B40C9439340002835
:1038A0000ADBC0240A4A800880008018A40002595C
:1038B0000A401343035130BD0F2210400838054A17
:1038C000800880008018C26911401943C161F2E785
:1038D00000E100E000ED00E0FF22044B9343044AC6
:1038E0009360BFF34F8FBFF36F8F704700000000EE
:1038F00000ED00E010B5203A1360029B01245360F4
:10390000039B06499360049BA143D36080235B041F
:10391000D361002391610265C36710BD05350000C6
:1039200070B50B4B15009860826E0A4B0E001A6042
:103930002C1C86F309880020034B9847201C00218B
:1039400000220023014C2047A9D3000005350000C8
:10395000EC1800203C1100201022014B1A61704726
:1039600000ED00E0044B5A699B689A4203D0802224
:10397000024B52055A607047EC18002000ED00E041
:1039800010B5094B9B6883420BD1EFF30583002BE5
:1039900007D08022054B52055A605A6A04490A40F2
:1039A0005A620BF0C5FE10BDEC18002000ED00E0DF
:1039B000FF7FFFFF15498A6815481044EFF3098C13
:1039C000F0C043464C4655465E466746F8C072B660
:1039D000104F114E4A698A603E60104C14192068DD
:1039E0000F4C2060D06F0023D367002800D162B64F
:1039F000074C10191030F8C89846A146AA46B3469D
:103A0000BC462438F0C88CF309887047EC180020B5
:103A10003000000004ED00E0000000086800000035
:103A20003C110020F0B5C02400220326FF25A4008D
:103A300010002F003040C0008740054993089B00CC
:103A40005B1819590132B94319511C2AF0D1F0BD44
:103A500000E100E010B5EFF30583054A103BDB0001
:103A6000D118496898588847FFF77CFF10BDC046B9
:103A700020FF000001480068704700003C11002052
:103A8000F0B589B002AC07000D00019200211022B0
:103A900020001E000BF0C2FF0223A370054B320072
:103AA0002000019903930697079507F0C1FD09B01F
:103AB000F0BDC046BFD3000010B5024B1B6898474D
:103AC000002010BD40110020034B044A186002235F
:103AD00091780B439370704740110020E004002060
:103AE00007230D4910B59943E0231B06CA1880230C
:103AF0001B029A4208D2094B5B1A2B2B05D91A00DC
:103B0000074808F066FF05E000230221054A064841
:103B100009F066FB002010BDA74C002000800020AB
:103B2000441100203B0D01002001010070B54169E6
:103B30000400867A0A4D00290BD0437ADB0706D4AD
:103B40002C237343EB185B6A1B689B689847002320
:103B500063612C2373432100E8180BF055FD70BD01
:103B6000500700202C234343014818187047C046D3
:103B7000500700202C2210B5817A064B4A439B182F
:103B80009A6A197F03231B31801A9943FCF7AEFA16
:103B900010BDC046500700202C2270B5847A064B19
:103BA00062439B185B6A9C685A680C601568FFF753
:103BB000E1FF6043281870BD50070020F0B589B0C0
:103BC000050004A80193170007910BF06FFE049BFA
:103BD000059C02930394EFF3108672B66B8B002B57
:103BE00043D02A8B9A4228D900220023280006F0CD
:103BF00007FA041E21D0002E00D162B6079B002BCD
:103C000041D0029A039B04A80BF071FE2C22059B65
:103C1000049F0193A17A244B4A439B185B6A3A00A4
:103C20001B6820001D6807A9019BA8476061002848
:103C30002AD12000FFF77AFF21E0698B4B1E6B83AE
:103C4000002E00D162B603232A7FAC6A1B329A434E
:103C50002B8B5B1A5343E418134B144AEB1A9B103B
:103C60005343A3722B7FE372C8E7002E00D162B6E4
:103C70003A002800019B06F0C3F9041EBED10024BF
:103C8000200009B0F0BD63610123002520002381DD
:103C9000079B29006382E27A656018300BF0BEFE54
:103CA00063692582E360EBE750070020A38B2EBAFF
:103CB000030010B5062807D9FFF7DCFE0922074BE1
:103CC0001A500120404210BD30205843044BC01808
:103CD00009F09CF90028EFD00020F4E70C00000068
:103CE00058110020F8B53024070044430B4E083427
:103CF000A419200009F08AF9051E0ED00100421E09
:103D0000200009F05CF90028F3D0012D05D1302303
:103D100000227B43F250F6187260F8BD501100206B
:103D200070B504000E001500FFF7C2FF002301303C
:103D30000DD030336343074AD11849683160002DF4
:103D400002D00C339B182B6030236343D3581800E8
:103D500070BDC04650110020F7B50025184B0193E7
:103D6000019801225242D31709F09AFB154F3800EF
:103D700009F04CF9061E0ED001353037072DF6D16B
:103D8000FFF778FE1722104B083D1A50019809F0F2
:103D90008BFB2800FEBD30246C430121380009F064
:103DA0001FF90A4F3B19E6515E609E6220000C30FD
:103DB000C0190BF05BFB2034E0190BF090FCE5E739
:103DC000A0060020581100200C0000005011002017
:103DD000F8B53024150044430E4A1019A15045602F
:103DE000C362002D15D0EB68002B12D0FFF742FE06
:103DF0000C34A3180622084EFF323758280009F069
:103E000042FB5F2F05D0FFF735FE33585F2B00D103
:103E10003750F8BD501100200C000000F0B505002F
:103E20000C0085B0002C01D105B0F0BDEFF3108778
:103E300072B60BF043FA0023114E00900193009AE2
:103E4000019B30687168801859410E4A0E4BFDF78E
:103E5000E6FD00230D4A8018594130607160002F43
:103E600000D162B626000391042C00D90426280054
:103E7000320003A90BF0C9FDAD19A41BD2E7C0465F
:103E800000000020FDB0B087E62EBB272DF304B55F
:103E9000F8B505000E001700124C134B9C4207D3D7
:103EA000FFF7E8FD6A22114B1A500120404215E04D
:103EB0002368AB4201D0002B11D13A003100280019
:103EC000A368984700280AD0FFF7D4FD0022074BCB
:103ED0003100C2503A002800E3689847F8BD10341A
:103EE000DBE7C046A8000100C80001000C0000008C
:103EF000F0B587B00391150004A905AA1E00FFF7CD
:103F00000FFF041E1BD0049B5B6A002B1FD00122F5
:103F10005242D317059809F0CFFA0D9A049B0192EB
:103F20000C9A200000925F6A2A0033000399B84778
:103F30000400059809F0C4FA200007B0F0BD092379
:103F4000FFF798FD0124034A64421350F4E75F230E
:103F5000F6E7C0460C000000F7B507000E0015009C
:103F6000FFF7FAFE041E1BDB002D09D17B1E012B7F
:103F700006D8022E03D0012E02D1062500E011251D
:103F8000F1B2AAB2B8B201AB02F0B2FD061E0BDA72
:103F9000200009F08DFAFFF76DFD0F4B76421E50A1
:103FA000012464422000FEBD0023019843600367A2
:103FB00078300BF0E2FA019890300BF090FB062D70
:103FC00002D101980AF020F8C0232000034A019989
:103FD0001B02FFF7FDFEE5E70C0000007004010086
:103FE00000B51622FFF746FD024B1A500120404251
:103FF00000BDC0460C000000F0B585B00A9E0B9FC6
:104000000C0031000C9D0190394310D02100693122
:1040100002D021000B310AD102A80BF068FC029AF1
:10402000039B13430BD1693444D10C246442FFF742
:1040300021FD214B64421C50012040422EE0731CA4
:1040400001D17B1C11D0092000210A22801979415D
:10405000002F25D133000A3322D80023FCF78CF936
:104060002B68834200D903002B60019E983630688C
:10407000002801D005F034FF0A220023286800211F
:10408000FDF7CDFC06F020FD2B685B00642B00D90A
:1040900064232B603068002806D1002005B0F0BDF5
:1040A0000023FCF78DF9DBE701225242D31705F01C
:1040B00075FEF2E76924B9E70C0000000623FF3320
:1040C00070B5994200D199E0013399423ED2043B48
:1040D000994200D169E009D8032954D0042958D065
:1040E000FFF7C8FC5F22524B1A5049E00423FF330C
:1040F0009942F5D1012113689C880C4210D0526876
:104100001468E568EE246403254202D1046F0C4272
:1041100003D00121DC882143D9801168143111605A
:1041200004229988114202D0D9880A43DA80026FAA
:10413000520703D50822D9880A43DA80026FD207D2
:104140002ED51022D9880A43DA8029E0394B9942CA
:104150005CD0394B994255D0384B9942C0D10300BD
:104160009C331B88062B5CD19E3003885B079B0F1A
:10417000032B59D1193BFFF77DFC2D4A5B421350AD
:104180000120404204E0703000788007C00F8003B7
:1041900070BD1168036F0222490403D51A430267F8
:1041A0000020F5E793430367FAE711688B88DB0784
:1041B0001BD5536892681C68A24237D0020078323F
:1041C00022613F221D686C7B94433B3A22436A7311
:1041D00020251C68A27BAA43A2731C68184DE268C4
:1041E0002A40E2601A6814321A608B885B0703D495
:1041F0000523026F1A42D3D07820C2E713689830A3
:104200000360CDE70223026F1343CCE70023146859
:1042100019001A0009F0A5F9002800DA0948206001
:10422000BEE75F235B42A6E77B23FBE70C20A8E702
:104230000C0000001B540000215400001154000029
:10424000FF3FE0FFFFFFFF7F37B5069C0500002B17
:104250001AD1009300220023124902F0E9FC280041
:1042600078300BF08AF9280090300BF038FA2000F3
:10427000290078300BF0BBF9280009F0C5FE2000BA
:10428000903009F046F937BD002BFCDA5B426367DA
:104290000423226F13432367200078300BF078F952
:1042A000EDE7C046A3D60000030013B500219E33FE
:1042B0001B8804005B0700229B0F0091032B18D181
:1042C000002309F063FF0423226F6367134323670E
:1042D000200009F022F9200002F086FC031E06DA15
:1042E000FFF7C8FB054A5B42135001235B421800ED
:1042F00016BD002302F09CFCE5E7C0460C00000060
:1043000037B505000C1E22D103009E331B88002206
:104310005B079B0F0091032B0DD1002309F036FFA3
:10432000031E0CDAFFF7A6FB0E4A5B421350012472
:10433000644220003EBD002302F07AFCF0E7012336
:104340002A6F280013432B6709F0E7F8F1E7013CD7
:10435000FFF790FB8622034B012C00D916221A503E
:10436000E5E7C0460C00000013B5040009F07AFE32
:10437000031E07DAFFF77EFB0D4A5B421350012054
:10438000404208E023009E331B881B069B0F023B24
:10439000012B01D9002016BD636800220093200084
:1043A0000023044902F044FC031EF3DAE2E7C046AE
:1043B0000C000000A3D60000F0B5030087B0049104
:1043C000032105929E331B8804009A090A408A4201
:1043D00007D1FFF74FFB5F222E4B1A5001204042BE
:1043E00038E05B080B40022B33D0016F012B07D163
:1043F000FFF740FB7822274B4907EED5626FECE7C9
:1044000002230D001D40194214D000260027224D22
:104410006368012A20D100930022002320001F4955
:1044200002F006FC002808DA4342FFF723FB194A92
:104430001350D3E700271A4EEAE76368200002937F
:10444000009601972B00059A049909F078FE002840
:10445000EADB002007B0F0BD029320002B0000969D
:104460000197059A049909F06AFE031E04DAFFF722
:1044700001FB084A5B42DBE7236FDB07E9D4636893
:104480000022009320000023044902F0D1FB031E08
:10449000DFDAECE70C00000033D70000A3D6000001
:1044A000307500000300C02213B59E331B88040042
:1044B0001340934207D1FFF7DDFA0E4B613A1A50D1
:1044C0000120404216BD09F025FE031E05DAFFF764
:1044D000D1FA084A5B421350F2E700230022200081
:1044E0000549009409F052FE030000208342E9DAF6
:1044F000EDE7C0460C00000049420000F0B5150091
:104500000A2291B0040001267642F71709910F9212
:104510005B0602D4036F9B072FD5002600273200CD
:104520003B000CA80BF0C2F90C9A0D9B0CA806924C
:10453000079332003B000BF0B9F90C9A0D9B0A92DD
:104540000B93236FDB071BD42649E36C8B4202D10C
:10455000A36C002B14D16368002200932000002379
:1045600002F066FB031E0BDAFFF784FA1E4A5B4279
:1045700013500120404211B0F0BD00231B4AD0E788
:10458000169A6368002A22D0049300230193179B94
:104590002000009302960397130009992A0009F05E
:1045A00079FE0028E7DA0FAB010002932000069A9B
:1045B000079B00960197FFF71FFD0130D9D00A9A9B
:1045C0000B9B0CA80BF093F90C9E0D9FD8E7029360
:1045D0002A00200000960197169B099909F0FFFD1B
:1045E000DFE7C046A3D600000C000000A086010053
:1045F0000A23F0B58FB00600170001246442E517C6
:1046000009910D93530602D4036F9B0732D5002402
:10461000002522002B000AA80BF048F90A9A0B9BF0
:104620000AA80492059322002B000BF03FF90A9A86
:104630000B9B0692079300233A00300000940195EB
:104640000999029309F002FE002816DA0DAB010069
:1046500002933000049A059B00940195FFF7CCFC6F
:10466000431C0AD0069A079B0AA80BF040F90A9C43
:104670000B9DE0E70023024ACDE70FB0F0BDC04636
:10468000A08601000300F7B51600C0229E331B88E8
:1046900004000D001340934208D1FFF7EBF9284BBB
:1046A000613A1A5001277F423800FEBD036F5A0756
:1046B00004D5FFF7DFF9224B626FF2E79B070FD4B7
:1046C00001225242D31769460092019309F06AF819
:1046D000031E05DAFFF7CEF9194A5B421350E1E7F2
:1046E000200000220023783005F08AFC041E04D14B
:1046F000FFF7C0F90B22124BD3E7FFF72DFB071E84
:1047000006DA200008F009FF200002F06DFAC9E780
:1047100032002900200008F0DEFE002808D0380012
:1047200008F0C6FEFFF7A6F98622054B1A50E8E707
:10473000C02321003800034A1B02FFF749FBB3E7FF
:104740000C00000070040100F0B591B00293169BBC
:1047500005000E0003925B0616D40027036F3C0091
:104760009B0713D4013F08A90897099709F01AF885
:104770003C00031E0ADAFFF77DF9714A5B421350D1
:104780000120404211B0F0BD00273C000223169AE0
:1047900078351A400592169A01951A4223D00BAD2E
:1047A0001022002128000BF039F904236B73019BC0
:1047B0002B61012123003A00280006F0E9FD0100E9
:1047C0000B3103000B29D6D85E4ACA40D207D2D596
:1047D00001980AF025FF051E0BD1FFF74BF90B22BC
:1047E000574B1A50CCE73A002300019805F008FC1B
:1047F000F1E7C368069303690793179B002B1BD04F
:10480000189B002B18D009F0ABFF2B0036331B7818
:10481000179A9B065B0F1380069BEB60079B2B612F
:104820008623FFF727F9464A1350059B002BA7D193
:10483000280009F0F9FEA3E7002E47D0F368002B0B
:1048400002D0B368002B04D1FFF714F90C223C4BC3
:10485000C7E728000AF05EF8029B04000190984226
:1048600000D901930023019F0493002F10D1029BD4
:104870009C4203D92023B2691343B3613269002AF1
:1048800056D07169002931D00F294DD877612DE0BC
:10489000B368049A9B181968002904D1FFF7EAF855
:1048A0001622274B9DE75B680393BB4200D9039711
:1048B0002800039A09F0CDFF049B083304930028D5
:1048C00001D06923ADE7039BFF1ACEE728000AF069
:1048D00021F8029B04000190984200D9019328001E
:1048E000019A039909F0B5FF0028EAD1059B002B36
:1048F00020D1280009F098FE169B01989B0600D451
:1049000040E720003EE70733190081438C46DB086F
:104910000233DB000299D31867448B42B6D8624455
:104920001368002BEFD1B1E7531807200293F7E784
:104930007261DBE7069BEB60079B2B61DCE7C046FF
:104940000C00000081080000F0B50E0001000124F9
:104950009E31098805009C468FB0214200D1CCE0F1
:104960004907890F022900D0C9E000200021149BCB
:104970000090019159060CD4290070310F78002164
:10498000BF07FF0F7C402000002443428C4100936E
:10499000019400246346A3424BD00A9380231499C8
:1049A0005B00194009920391A6420BD0A24209D1A3
:1049B000F3681620A34200D171E0B3681A685B68FF
:1049C00009920B930027009B019C06A80C930D9461
:1049D0001A0023000AF06AFF069B079C04930594C3
:1049E0003C000A9B002B3ED0AB6F002B24D104224D
:1049F0002B6F134209D0002C35D1686F4042C4435D
:104A0000E4170440002805DA4AE00122134213D0DB
:104A1000002C28D12800169A159908F05CFD002872
:104A200000D06EE0149B9B0703D42100280009F0FE
:104A300058FC20000FB0F0BD009B019A1343029375
:104A400013D1002E1CD1149B28000AAA09A908F032
:104A500088FD23181843041E4DD1029B002B1DD046
:104A6000039B002B3DD12000C9E72800009A019B41
:104A70000CA90C920D9308F095FE0028E1DABEE730
:104A8000149B28000BAA09A908F06BFD0300241849
:104A900023430DD1009B019A134309D10B204042BF
:104AA0004342FEF7E7FF0124174A64421350C0E770
:104AB000B368FA009958091809910A99091A0A91D4
:104AC0000B990029CCD1F16801378F42CBD0083245
:104AD0009B181A685B6809920B93002A01D0002B7F
:104AE000CED1049A059B0CA80AF001FF0C9A0D9BED
:104AF0000092019375E71C00B2E70923D1E78023F8
:104B0000CFE78623CDE7C0460C000000F0B585B0A6
:104B1000141E0A9D0B9E10D004009E342488240687
:104B2000A40FA71E012F0BD8009302961300019526
:104B30000A000021FFF708FE0400200005B0F0BDC8
:104B4000012C08D100930296130001950A00002160
:104B5000FFF7FAFEF0E7FEF78DFF86220124024BF5
:104B600064421A50E9E7C0460C0000000300F0B5AB
:104B70009E331C8887B02406A40FE3B20593002956
:104B800018D08E68002E1ED0CB6804360493002304
:104B900037001D00049EAE4219D1059D023D012D36
:104BA0001BD80C1D02940C68009201940022FFF7A0
:104BB000CBFD06E01623FEF75DFF0D4A13500120E2
:104BC000404207B0F0BD0C23F5E78623F3E7EE0083
:104BD000BE590135B4466344DCE7012CF5D10C1D08
:104BE00002940C68009201940022FFF7ADFEE8E702
:104BF0000C00000010B514001A00029B06293DD0DD
:104C000008DC002941D001290ED0FEF733FF6D22C8
:104C1000294B17E02929F8D1122C49D0132C49D05F
:104C20000F21102C38D0F0E7262C24D00CDC032CDC
:104C300017D0042CE9D11B68042B0FD0FEF71AFF04
:104C400016221D4B1A5030E0272CDED11B68042B96
:104C5000F4D19E3003889B065B0F00E0436F136026
:104C600007E09E300188890921401B68042BE5D1AB
:104C70001160002010BD9C300188F6E7012CC4D1E2
:104C8000FEF7F8FE7B220C4BDCE7022C03D0212C34
:104C9000BBD10D2100E0102102F0AEF8031EE8DACE
:104CA000FEF7E8FE044A5B42135001204042E1E770
:104CB0000E21F1E71621EFE70C00000070B50400AB
:104CC00010001A00049B06295BD008DC00295FD085
:104CD000012911D0FEF7CEFE6D22384B1CE02929A8
:104CE000F8D110380A28F5D8FBF7E2F95F6163655F
:104CF000F4F4F4F4F4F422000D2819D01928E9D1C1
:104D000025009E3528888106490F0139012905D9DA
:104D1000FEF7B0FE6A22294B1A501CE0002B04D08B
:104D2000002A09D01178002904D1254B1840288089
:104D3000002070BD082B04D0FEF79CFE16221F4BEE
:104D4000EAE7100001F0AAFB031E07DAFEF792FE65
:104D50001A4A5B42135001204042EAE701F06EFA22
:104D6000002804D1FEF786FE1322144BD4E78023DB
:104D70002A889B0013432B8001F00AFBA03420708B
:104D8000D6E70128A6D1FEF775FE7B220B4BC3E7C1
:104D9000022808D00D2121289CD1200002F000F823
:104DA000031EC5DAD2E71021F7E70F21F5E713213B
:104DB000F3E70E21F1E71621EFE7C0460C000000F3
:104DC000FFFDFFFF30B503259E3000885F23840977
:104DD0002C40AC4210D0493B00290DD0002A0BD00A
:104DE0006A33C20508D56A3B012C05D1400828402A
:104DF0006A33022800D16A3BFEF73CFE024A135098
:104E00000120404230BDC0460C00000000B57922B0
:104E1000FEF730FE024B1A500120404200BDC04652
:104E20000C00000010B5024BDB68984710BDC0466F
:104E30007004010013B5040009F014F9031E07DA29
:104E4000FEF718FE094A5B421350012040420BE076
:104E500063680022009320000023054901F0E8FE6A
:104E6000030000208342EBDB16BDC0460C000000AF
:104E70004BD80000F0B585B006000F001500FEF716
:104E80006BFF041E10DB6ABA92B2F9B2B0B203AB88
:104E900001F02EFE051E0CDA200008F009FBFEF7DB
:104EA000E9FD124B6D421D5001246442200005B003
:104EB000F0BD00230398436078300AF05EFB03984E
:104EC0000B49436800220093002301F0B1FE0399CF
:104ED000051E03DA080001F087FEDDE7C02320008D
:104EE000044A1B02FEF774FFE0E7C0460C00000016
:104EF0004BD80000B4040100012082B002290FD079
:104F0000002003290CD152BA92B20130002A07D0F6
:104F1000032A05D0034B9A4202D0F63A5042504140
:104F200002B07047A4880000F0B50C008DB007AD4A
:104F30000392070014220021280002930AF06EFD5C
:104F4000A669002E05D1A020385601F077F9061E7B
:104F500049D0032330002B8001F01AFA23003733A5
:104F60001B7868609B0728D5A31CDB7FEB721A1C9B
:104F7000082B00D908222100D2B222310AA80AF057
:104F800044FDA38E5BBA6B8033681B7C032B07D177
:104F90002200023B290030002A322B8108F078FCE5
:104FA000029B1A68142A00D91422039807A90AF050
:104FB0002CFD1423029A136015E033681B7C032B2D
:104FC000EED1E368200000932369019309F0C8FB48
:104FD000A368DF68002F02D01B8A0D2B05D8009B29
:104FE000E360019B23610DB0F0BD06230AA81A00FF
:104FF000F918EB720AF009FD7B7B3A7B1B02134325
:105000006B8001232B8104AB06223900981C0AF027
:10501000FCFC064B04AA29003000138008F038FC81
:10502000009BE360019B2361BAE7C04603060000D2
:10503000F0B591B0059201225242D3170C000892AC
:1050400009930490002908D1FEF714FD7B4B173219
:105050001A500120404211B0F0BD8A68002A04D1E4
:10506000FEF708FD754B0C32F2E700231F008B6141
:10507000C96804328B426ED1059B5B0606D4049B43
:105080000222196F0B001340114269D00022002345
:1050900008920993089A099B009201930223059AAA
:1050A000049E1A400792059A78361A425ED00BADDC
:1050B0001022002128000AF0B1FC04232E616B733A
:1050C0000121009A019B280006F062F901000B31D2
:1050D00003000B2950D85A4ACA40D2074CD5300099
:1050E0000AF09EFA051E4FD0002283680092002B22
:1050F0004FD1009B06979F4200D906930023069E3E
:105100000393039AE3689A4201D2002E47D1009B91
:105110009F4203D22023A2691343A3612268002A7D
:1051200058D0636829000B9304980BABFFF7FCFE83
:105130000B9B6360206900284ED16061079B2800AB
:10514000002B6CD109F070FA059B00989B0600D5E6
:1051500081E706987FE7D800105801333F1889E7A8
:105160000421049808AA01F047FE93E73000009A52
:10517000019B04F045FFB5E7002B05DAFEF77AFC4A
:105180002E4A5B42135064E7FEF774FC0B222B4B54
:105190005EE71A8A00995B688A180092A7E7039B6A
:1051A000DA00A3689B185A680292B24200D90296AC
:1051B000029A002A07D02800196809F04AFB002843
:1051C00030D1029BF61A039B013399E7280009F0BE
:1051D0002BFA3EE76260ADE76269002AAED000219B
:1051E0000AF01CFC666900210F2E04D907239C4697
:1051F0002269002A01D16161A0E71368002BFAD06F
:1052000007331F006046DB08874302332069DB0059
:10521000D3188019C9198342EDD8D219E9E709F0EA
:105220009FFA91E7FEF726FC6922044B1A50079B70
:10523000002BCBD0280009F093FA0AE70C000000FD
:105240008108000070B504000D0001204042C11724
:1052500088B016000C9A06900791002A09D1FEF733
:1052600009FC194B79321A5001235B42180008B02F
:1052700070BD5B0605D4216F02220B001340114262
:105280001BD0002200230692079363682900049331
:10529000069A079B02920393002301930D9B320011
:1052A000009320000C9B08F0F5FF031EDEDAFEF7EA
:1052B000E1FB054A5B421350D6E70521200006AA10
:1052C00001F09AFDE1E7C0460C00000070B5150042
:1052D00001225242D31786B004000E0004920593B7
:1052E0006B0605D4016F03320B00134011421AD034
:1052F000002200230492059304980599002300904E
:10530000019102932A003100200008F09FFF031E44
:1053100006DAFEF7AFFB064A5B42135001235B42FD
:10532000180006B070BD052104AA01F065FDE3E791
:105330000C000000F0B58DB01D0003920122524216
:10534000D31704000492059302916B0605D4016FF4
:1053500003320B00134011422ED00022002304928E
:10536000059302232E0027001E4078371D4250D09F
:10537000049A059B07AD009201930021102228009A
:105380000AF04CFB04232F616B730121009A019BEF
:10539000280005F0FDFF02000B320B2A03D8244B36
:1053A000D340DB070DD44342FEF764FB214A135080
:1053B000012040420DB0F0BD042104AA01F01CFD03
:1053C000CFE738000AF02CF905000B230028EBD0BA
:1053D00000238268002A24D1039F9F4200D91F0026
:1053E0003A002800029909F034FA002817D1129BDC
:1053F000002B07D0139B002B04D029002000129A09
:10540000FFF792FD2800002E0FD109F00DF93800AA
:10541000D0E7049A059B380004F0F2FDD4E7692335
:10542000C2E7118A52685B18D4E709F099F9EEE7F0
:10543000810800000C00000037B5069D002B01D04C
:10544000002D07D1FEF716FB1622054B1A5001203E
:1054500040423EBD034C0095E46AA047F9E7C046D0
:105460000C0000007004010037B5069D024C009549
:10547000246BA0473EBDC04670040100F8B504008F
:105480000E0008F058FA070005005C37012252426E
:10549000D317380004F018FE6A88124B9A4205D1DF
:1054A000380004F0D9FD732040420DE0380004F0CC
:1054B000D3FD2368002E08D0002C10D01868836814
:1054C000002B0AD0DB699847F8BD002C07D018687C
:1054D0008368002B01D01B6AF5E70220E4E7002374
:1054E0009B68FFDEFFFF0000F0B58DB003900491D4
:1054F000002800D1ECE08C6800210368E0681D689A
:10550000AE68238A6468C918002CFAD1C9B206AA09
:1055100000F032FA071E03D1022420000DB0F0BDC6
:10552000280073689847400717D50723069E06AFE3
:1055300035781D40022DEFD0002D55D1049B390048
:1055400038331A78039800F08FFC04000128E4D166
:10555000049809F069F80024DFE70C21069A5378D3
:105560000B4205D19B06D7D413785B07DDD0D3E778
:10557000039808F0E0F903005C330600079D0593EB
:1055800001225242D317059804F09EFD6B782A78C9
:105590001B021343504A934202D03188994221D1D1
:1055A0000C21069B5B780B40082B10D1EB78A97877
:1055B0001B020B43934204D0B288D31A5A42534180
:1055C000DFB2059804F048FD002FAED1A4E70C2B04
:1055D000F7D10822B11DA81C0AF028FA434258410D
:1055E000C7B2EEE72700ECE7039808F0A4F9836957
:1055F000002B00D090E70124032D07D13900039838
:1056000000F088FC0400022800D185E70C227378A2
:105610001340082B0AD132787B68520655D51A7888
:105620005B781B0213432C4A934229D0039808F05D
:1056300087F9802307001F40184221D1069B1B7861
:105640009B061DD5FA2200235200009201930321EC
:105650003B003A00039801F0DDFC051E10D0069BCC
:1056600001009A78039808F007FB002805D02A006B
:105670003900AB68039808F0B1F9280008F0D4FFAE
:10568000072331780B40032B00D161E701257278A5
:1056900004984906C90F089B69409209203008F018
:1056A00063F97278049812072900079B920F2A3039
:1056B00008F05AF9F623049A0A9990689386C36809
:1056C0000C30C91A07F0D7FE27E79A78DB78A8E7ED
:1056D000039B9B68FFDEC046FFFF0000F0B50F256F
:1056E0008BB00C00049008F026F9002306AA5C4E4B
:1056F000AD1893732B7033680690002B06D10122EE
:105700005242D317574807F06BFE30602300363300
:105710001A789206520F032A2AD16169002904D10E
:1057200016256D4228000BB0F0BD0B009E331B8880
:105730009B091340032B38D0022BF1D10B003433DB
:10574000DA7A4031082A06D8230020002A335A701A
:105750002C300AF05AF9049B1B6819005A7C12314C
:10576000082A05D82000A31CDA7722300AF04DF968
:105770000E2306AA9B1821002200049800952032CF
:105780002A3108F069FA00230026A56805930395DD
:10579000039B002B0BD106AB06AA9B7BD27B9B18ED
:1057A0009B197D2B0AD97A25BBE70123ECE7039BE4
:1057B0001B8AF618039B5B680393E9E7002D3CD036
:1057C000274F386807F007FE386806AB997B0C3026
:1057D00007F04AFEA3683D680793E8682B8A698A48
:1057E0006A69C91A821A891A06AAD27B8A42DAD849
:1057F000891A8E42D7D8C018079A039B009607F0E3
:1058000007FE864200D08BE7280031000C3007F0FD
:105810002BFE386806ABD97B0C3007F025FE059BC4
:10582000002B0ED00E4E21003268049808F02BF9A0
:10583000051E00D076E733681D8A200008F0F4FECC
:1058400070E72200210006AB9B7B069800933B6823
:1058500020322A3100F0AAF90028E3D160E7C046DF
:10586000A0120020A8070020F0B587B0050008F0BE
:1058700062F801950400002D02D02B6810330193CB
:10588000019B023302930122200011005C3009F0D9
:10589000DFFE200001220021443009F0D9FE04215E
:1058A00005A8FEF7BBFA2300059A4133012627001D
:1058B0001A70012376424037668028003B7008F05A
:1058C0003FF8000703D504233A7813433B70A31D28
:1058D0002680A680A6871E00019F039308373B0001
:1058E00032005978013B1170019901329942F8D187
:1058F000204B0299E3812300103308221800029301
:105900000AF083F8012308220299280008F0F1FA2E
:10591000280008F010F801221C30110009F098FE50
:105920007B78013F3370019B0136BB42F8D1002DDB
:105930001ED02B681E68B768002F0CD030007B6823
:105940009847400707D5039B0022059301213000AB
:105950003F6905ABB8472B6818688368002B05D0F2
:1059600000215B699847002800D1E08707B0F0BDAF
:10597000AB68FFDE01080000F0B58BB006ABDC1DA4
:10598000002321700339039209937A2902D9002058
:105990000BB0F0BD220009A908F0FAF8039B071E1E
:1059A0001860F4D003785B075B0F032BEFD8099BDB
:1059B000029343781B079B0F42D00A22022B00D18F
:1059C000063A23789342E2D302999B1A2370029BF2
:1059D0008918099104930291039A049B53607A7881
:1059E00092092FD0012339784906C90F4B405B003B
:1059F000DBB219000831022A00D1991C23788B42AE
:105A0000C5D3029A5B1A2370029B52180992059320
:105A10000292059B039A9360237801933B785A077F
:105A20000693530F002A0FD10199029808F0EEF85F
:105A30000028ACDB019B039A9382002B1AD00BE069
:105A40000493C9E70592E4E7012B0AD1019B002BDF
:105A50009DD0019B039A9382029B039A01201361BC
:105A600096E7022B08D1019B002B00D08FE7019B0A
:105A7000039A93820023F0E7019B002B00D186E775
:105A8000029B1978481E082800D980E7FAF71AFB0C
:105A9000190B2225058130667300002308241800A5
:105AA00021001A0022E000240423002208219C4641
:105AB0000126130010000C43019D654500D266E7E6
:105AC0001CE00122002316000C24082110000225EE
:105AD000AC46F1E704240223E7E77A780C211300AF
